{
  "_format": "hh-sol-artifact-1",
  "contractName": "Dtweet",
  "sourceName": "contracts/dtweet.sol",
  "abi": [
    {
      "inputs": [],
      "stateMutability": "nonpayable",
      "type": "constructor"
    },
    {
      "anonymous": false,
      "inputs": [
        {
          "indexed": true,
          "internalType": "address",
          "name": "owner",
          "type": "address"
        },
        {
          "indexed": true,
          "internalType": "address",
          "name": "approved",
          "type": "address"
        },
        {
          "indexed": true,
          "internalType": "uint256",
          "name": "tokenId",
          "type": "uint256"
        }
      ],
      "name": "Approval",
      "type": "event"
    },
    {
      "anonymous": false,
      "inputs": [
        {
          "indexed": true,
          "internalType": "address",
          "name": "owner",
          "type": "address"
        },
        {
          "indexed": true,
          "internalType": "address",
          "name": "operator",
          "type": "address"
        },
        {
          "indexed": false,
          "internalType": "bool",
          "name": "approved",
          "type": "bool"
        }
      ],
      "name": "ApprovalForAll",
      "type": "event"
    },
    {
      "anonymous": false,
      "inputs": [
        {
          "indexed": false,
          "internalType": "uint256",
          "name": "id",
          "type": "uint256"
        },
        {
          "indexed": false,
          "internalType": "string",
          "name": "hash",
          "type": "string"
        },
        {
          "indexed": false,
          "internalType": "uint256",
          "name": "tipAmount",
          "type": "uint256"
        },
        {
          "indexed": false,
          "internalType": "address payable",
          "name": "author",
          "type": "address"
        }
      ],
      "name": "PostCreated",
      "type": "event"
    },
    {
      "anonymous": false,
      "inputs": [
        {
          "indexed": false,
          "internalType": "uint256",
          "name": "id",
          "type": "uint256"
        },
        {
          "indexed": false,
          "internalType": "string",
          "name": "hash",
          "type": "string"
        },
        {
          "indexed": false,
          "internalType": "uint256",
          "name": "tipAmount",
          "type": "uint256"
        },
        {
          "indexed": false,
          "internalType": "address payable",
          "name": "author",
          "type": "address"
        }
      ],
      "name": "PostTipped",
      "type": "event"
    },
    {
      "anonymous": false,
      "inputs": [
        {
          "indexed": true,
          "internalType": "address",
          "name": "from",
          "type": "address"
        },
        {
          "indexed": true,
          "internalType": "address",
          "name": "to",
          "type": "address"
        },
        {
          "indexed": true,
          "internalType": "uint256",
          "name": "tokenId",
          "type": "uint256"
        }
      ],
      "name": "Transfer",
      "type": "event"
    },
    {
      "inputs": [
        {
          "internalType": "address",
          "name": "to",
          "type": "address"
        },
        {
          "internalType": "uint256",
          "name": "tokenId",
          "type": "uint256"
        }
      ],
      "name": "approve",
      "outputs": [],
      "stateMutability": "nonpayable",
      "type": "function"
    },
    {
      "inputs": [
        {
          "internalType": "address",
          "name": "owner",
          "type": "address"
        }
      ],
      "name": "balanceOf",
      "outputs": [
        {
          "internalType": "uint256",
          "name": "",
          "type": "uint256"
        }
      ],
      "stateMutability": "view",
      "type": "function"
    },
    {
      "inputs": [],
      "name": "getAllPosts",
      "outputs": [
        {
          "components": [
            {
              "internalType": "uint256",
              "name": "id",
              "type": "uint256"
            },
            {
              "internalType": "string",
              "name": "hash",
              "type": "string"
            },
            {
              "internalType": "uint256",
              "name": "tipAmount",
              "type": "uint256"
            },
            {
              "internalType": "address payable",
              "name": "author",
              "type": "address"
            }
          ],
          "internalType": "struct Dtweet.Post[]",
          "name": "_posts",
          "type": "tuple[]"
        }
      ],
      "stateMutability": "view",
      "type": "function"
    },
    {
      "inputs": [
        {
          "internalType": "uint256",
          "name": "tokenId",
          "type": "uint256"
        }
      ],
      "name": "getApproved",
      "outputs": [
        {
          "internalType": "address",
          "name": "",
          "type": "address"
        }
      ],
      "stateMutability": "view",
      "type": "function"
    },
    {
      "inputs": [],
      "name": "getMyNfts",
      "outputs": [
        {
          "internalType": "uint256[]",
          "name": "_ids",
          "type": "uint256[]"
        }
      ],
      "stateMutability": "view",
      "type": "function"
    },
    {
      "inputs": [
        {
          "internalType": "address",
          "name": "owner",
          "type": "address"
        },
        {
          "internalType": "address",
          "name": "operator",
          "type": "address"
        }
      ],
      "name": "isApprovedForAll",
      "outputs": [
        {
          "internalType": "bool",
          "name": "",
          "type": "bool"
        }
      ],
      "stateMutability": "view",
      "type": "function"
    },
    {
      "inputs": [
        {
          "internalType": "string",
          "name": "_tokenURI",
          "type": "string"
        }
      ],
      "name": "mint",
      "outputs": [
        {
          "internalType": "uint256",
          "name": "",
          "type": "uint256"
        }
      ],
      "stateMutability": "nonpayable",
      "type": "function"
    },
    {
      "inputs": [],
      "name": "name",
      "outputs": [
        {
          "internalType": "string",
          "name": "",
          "type": "string"
        }
      ],
      "stateMutability": "view",
      "type": "function"
    },
    {
      "inputs": [
        {
          "internalType": "uint256",
          "name": "tokenId",
          "type": "uint256"
        }
      ],
      "name": "ownerOf",
      "outputs": [
        {
          "internalType": "address",
          "name": "",
          "type": "address"
        }
      ],
      "stateMutability": "view",
      "type": "function"
    },
    {
      "inputs": [],
      "name": "postCount",
      "outputs": [
        {
          "internalType": "uint256",
          "name": "",
          "type": "uint256"
        }
      ],
      "stateMutability": "view",
      "type": "function"
    },
    {
      "inputs": [
        {
          "internalType": "uint256",
          "name": "",
          "type": "uint256"
        }
      ],
      "name": "posts",
      "outputs": [
        {
          "internalType": "uint256",
          "name": "id",
          "type": "uint256"
        },
        {
          "internalType": "string",
          "name": "hash",
          "type": "string"
        },
        {
          "internalType": "uint256",
          "name": "tipAmount",
          "type": "uint256"
        },
        {
          "internalType": "address payable",
          "name": "author",
          "type": "address"
        }
      ],
      "stateMutability": "view",
      "type": "function"
    },
    {
      "inputs": [
        {
          "internalType": "address",
          "name": "",
          "type": "address"
        }
      ],
      "name": "profiles",
      "outputs": [
        {
          "internalType": "uint256",
          "name": "",
          "type": "uint256"
        }
      ],
      "stateMutability": "view",
      "type": "function"
    },
    {
      "inputs": [
        {
          "internalType": "address",
          "name": "from",
          "type": "address"
        },
        {
          "internalType": "address",
          "name": "to",
          "type": "address"
        },
        {
          "internalType": "uint256",
          "name": "tokenId",
          "type": "uint256"
        }
      ],
      "name": "safeTransferFrom",
      "outputs": [],
      "stateMutability": "nonpayable",
      "type": "function"
    },
    {
      "inputs": [
        {
          "internalType": "address",
          "name": "from",
          "type": "address"
        },
        {
          "internalType": "address",
          "name": "to",
          "type": "address"
        },
        {
          "internalType": "uint256",
          "name": "tokenId",
          "type": "uint256"
        },
        {
          "internalType": "bytes",
          "name": "_data",
          "type": "bytes"
        }
      ],
      "name": "safeTransferFrom",
      "outputs": [],
      "stateMutability": "nonpayable",
      "type": "function"
    },
    {
      "inputs": [
        {
          "internalType": "address",
          "name": "operator",
          "type": "address"
        },
        {
          "internalType": "bool",
          "name": "approved",
          "type": "bool"
        }
      ],
      "name": "setApprovalForAll",
      "outputs": [],
      "stateMutability": "nonpayable",
      "type": "function"
    },
    {
      "inputs": [
        {
          "internalType": "uint256",
          "name": "_id",
          "type": "uint256"
        }
      ],
      "name": "setProfile",
      "outputs": [],
      "stateMutability": "nonpayable",
      "type": "function"
    },
    {
      "inputs": [
        {
          "internalType": "bytes4",
          "name": "interfaceId",
          "type": "bytes4"
        }
      ],
      "name": "supportsInterface",
      "outputs": [
        {
          "internalType": "bool",
          "name": "",
          "type": "bool"
        }
      ],
      "stateMutability": "view",
      "type": "function"
    },
    {
      "inputs": [],
      "name": "symbol",
      "outputs": [
        {
          "internalType": "string",
          "name": "",
          "type": "string"
        }
      ],
      "stateMutability": "view",
      "type": "function"
    },
    {
      "inputs": [
        {
          "internalType": "uint256",
          "name": "_id",
          "type": "uint256"
        }
      ],
      "name": "tipPostOwner",
      "outputs": [],
      "stateMutability": "payable",
      "type": "function"
    },
    {
      "inputs": [],
      "name": "tokenCount",
      "outputs": [
        {
          "internalType": "uint256",
          "name": "",
          "type": "uint256"
        }
      ],
      "stateMutability": "view",
      "type": "function"
    },
    {
      "inputs": [
        {
          "internalType": "uint256",
          "name": "tokenId",
          "type": "uint256"
        }
      ],
      "name": "tokenURI",
      "outputs": [
        {
          "internalType": "string",
          "name": "",
          "type": "string"
        }
      ],
      "stateMutability": "view",
      "type": "function"
    },
    {
      "inputs": [
        {
          "internalType": "address",
          "name": "from",
          "type": "address"
        },
        {
          "internalType": "address",
          "name": "to",
          "type": "address"
        },
        {
          "internalType": "uint256",
          "name": "tokenId",
          "type": "uint256"
        }
      ],
      "name": "transferFrom",
      "outputs": [],
      "stateMutability": "nonpayable",
      "type": "function"
    },
    {
      "inputs": [
        {
          "internalType": "string",
          "name": "_postHash",
          "type": "string"
        }
      ],
      "name": "uploadPost",
      "outputs": [],
      "stateMutability": "nonpayable",
      "type": "function"
    }
  ],
  "bytecode": "0x60806040523480156200001157600080fd5b5060405180604001604052806006815260200165111d1dd9595d60d21b81525060405180604001604052806006815260200165111515d1515560d21b81525081600090805190602001906200006892919062000087565b5080516200007e90600190602084019062000087565b5050506200016a565b82805462000095906200012d565b90600052602060002090601f016020900481019282620000b9576000855562000104565b82601f10620000d457805160ff191683800117855562000104565b8280016001018555821562000104579182015b8281111562000104578251825591602001919060010190620000e7565b506200011292915062000116565b5090565b5b8082111562000112576000815560010162000117565b600181811c908216806200014257607f821691505b602082108114156200016457634e487b7160e01b600052602260045260246000fd5b50919050565b612267806200017a6000396000f3fe6080604052600436106101405760003560e01c806370a08231116100b6578063bbe156271161006f578063bbe1562714610399578063bdd05adb146103c6578063c87b56dd146103e6578063d6313c0614610406578063d85d3d2714610419578063e985e9c51461043957600080fd5b806370a08231146102ee57806385d3cb371461030e57806395d89b411461032e5780639f181b5e14610343578063a22cb46514610359578063b88d4fde1461037957600080fd5b80630b1e7f83116101085780630b1e7f831461021857806317906c2e1461024857806323b872dd1461026c578063305611001461028c57806342842e0e146102ae5780636352211e146102ce57600080fd5b806301ffc9a714610145578063047b07bf1461017a57806306fdde031461019c578063081812fc146101be578063095ea7b3146101f6575b600080fd5b34801561015157600080fd5b50610165610160366004611e08565b610482565b60405190151581526020015b60405180910390f35b34801561018657600080fd5b5061018f6104d4565b6040516101719190611fc9565b3480156101a857600080fd5b506101b16105bc565b604051610171919061200d565b3480156101ca57600080fd5b506101de6101d9366004611e86565b61064e565b6040516001600160a01b039091168152602001610171565b34801561020257600080fd5b50610216610211366004611ddf565b6106db565b005b34801561022457600080fd5b50610238610233366004611e86565b6107f1565b60405161017194939291906120c3565b34801561025457600080fd5b5061025e60085481565b604051908152602001610171565b34801561027857600080fd5b50610216610287366004611cf1565b6108ac565b34801561029857600080fd5b506102a16108dd565b6040516101719190611f36565b3480156102ba57600080fd5b506102166102c9366004611cf1565b610aa2565b3480156102da57600080fd5b506101de6102e9366004611e86565b610abd565b3480156102fa57600080fd5b5061025e610309366004611ca5565b610b34565b34801561031a57600080fd5b50610216610329366004611e86565b610bbb565b34801561033a57600080fd5b506101b1610c49565b34801561034f57600080fd5b5061025e60075481565b34801561036557600080fd5b50610216610374366004611da5565b610c58565b34801561038557600080fd5b50610216610394366004611d2c565b610c67565b3480156103a557600080fd5b5061025e6103b4366004611ca5565b600a6020526000908152604090205481565b3480156103d257600080fd5b506102166103e1366004611e40565b610c9f565b3480156103f257600080fd5b506101b1610401366004611e86565b610e2e565b610216610414366004611e86565b610fa5565b34801561042557600080fd5b5061025e610434366004611e40565b611229565b34801561044557600080fd5b50610165610454366004611cbf565b6001600160a01b03918216600090815260056020908152604080832093909416825291909152205460ff1690565b60006001600160e01b031982166380ac58cd60e01b14806104b357506001600160e01b03198216635b5e139f60e01b145b806104ce57506301ffc9a760e01b6001600160e01b03198316145b92915050565b60606104df33610b34565b67ffffffffffffffff81111561050557634e487b7160e01b600052604160045260246000fd5b60405190808252806020026020018201604052801561052e578160200160208202803683370190505b50600754909150600090815b818110156105b657336105516102e98360016120fd565b6001600160a01b031614156105a45761056b8160016120fd565b84848151811061058b57634e487b7160e01b600052603260045260246000fd5b6020908102919091010152826105a0816121a7565b9350505b806105ae816121a7565b91505061053a565b50505090565b6060600080546105cb9061216c565b80601f01602080910402602001604051908101604052809291908181526020018280546105f79061216c565b80156106445780601f1061061957610100808354040283529160200191610644565b820191906000526020600020905b81548152906001019060200180831161062757829003601f168201915b5050505050905090565b60006106598261126a565b6106bf5760405162461bcd60e51b815260206004820152602c60248201527f4552433732313a20617070726f76656420717565727920666f72206e6f6e657860448201526b34b9ba32b73a103a37b5b2b760a11b60648201526084015b60405180910390fd5b506000908152600460205260409020546001600160a01b031690565b60006106e682610abd565b9050806001600160a01b0316836001600160a01b031614156107545760405162461bcd60e51b815260206004820152602160248201527f4552433732313a20617070726f76616c20746f2063757272656e74206f776e656044820152603960f91b60648201526084016106b6565b336001600160a01b038216148061077057506107708133610454565b6107e25760405162461bcd60e51b815260206004820152603860248201527f4552433732313a20617070726f76652063616c6c6572206973206e6f74206f7760448201527f6e6572206e6f7220617070726f76656420666f7220616c6c000000000000000060648201526084016106b6565b6107ec8383611287565b505050565b600960205260009081526040902080546001820180549192916108139061216c565b80601f016020809104026020016040519081016040528092919081815260200182805461083f9061216c565b801561088c5780601f106108615761010080835404028352916020019161088c565b820191906000526020600020905b81548152906001019060200180831161086f57829003601f168201915b5050505060028301546003909301549192916001600160a01b0316905084565b6108b633826112f5565b6108d25760405162461bcd60e51b81526004016106b690612072565b6107ec8383836113db565b606060085467ffffffffffffffff81111561090857634e487b7160e01b600052604160045260246000fd5b60405190808252806020026020018201604052801561096d57816020015b61095a604051806080016040528060008152602001606081526020016000815260200160006001600160a01b031681525090565b8152602001906001900390816109265790505b50905060005b8151811015610a9e576009600061098b8360016120fd565b8152602001908152602001600020604051806080016040529081600082015481526020016001820180546109be9061216c565b80601f01602080910402602001604051908101604052809291908181526020018280546109ea9061216c565b8015610a375780601f10610a0c57610100808354040283529160200191610a37565b820191906000526020600020905b815481529060010190602001808311610a1a57829003601f168201915b5050509183525050600282015460208201526003909101546001600160a01b03166040909101528251839083908110610a8057634e487b7160e01b600052603260045260246000fd5b60200260200101819052508080610a96906121a7565b915050610973565b5090565b6107ec83838360405180602001604052806000815250610c67565b6000818152600260205260408120546001600160a01b0316806104ce5760405162461bcd60e51b815260206004820152602960248201527f4552433732313a206f776e657220717565727920666f72206e6f6e657869737460448201526832b73a103a37b5b2b760b91b60648201526084016106b6565b60006001600160a01b038216610b9f5760405162461bcd60e51b815260206004820152602a60248201527f4552433732313a2062616c616e636520717565727920666f7220746865207a65604482015269726f206164647265737360b01b60648201526084016106b6565b506001600160a01b031660009081526003602052604090205490565b33610bc582610abd565b6001600160a01b031614610c375760405162461bcd60e51b815260206004820152603360248201527f4d757374206f776e20746865206e667420796f752077616e7420746f2073656c60448201527265637420617320796f75722070726f66696c6560681b60648201526084016106b6565b336000908152600a6020526040902055565b6060600180546105cb9061216c565b610c63338383611577565b5050565b610c7133836112f5565b610c8d5760405162461bcd60e51b81526004016106b690612072565b610c9984848484611646565b50505050565b6000610caa33610b34565b11610d065760405162461bcd60e51b815260206004820152602660248201527f4d757374206f776e206120646563656e74726174776974746572206e667420746044820152651bc81c1bdcdd60d21b60648201526084016106b6565b6000815111610d575760405162461bcd60e51b815260206004820152601960248201527f43616e6e6f74207061737320616e20656d70747920686173680000000000000060448201526064016106b6565b60088054906000610d67836121a7565b9091555050604080516080810182526008548082526020808301858152600084860181905233606086015292835260098252939091208251815592518051929392610db89260018501920190611b83565b506040828101516002830155606090920151600390910180546001600160a01b0319166001600160a01b0390921691909117905560085490517fc66336337a24e513f909b3b25119854dba8385d51307dbc7d31d1b2805e19c7e91610e2391849060009033906120c3565b60405180910390a150565b6060610e398261126a565b610e9f5760405162461bcd60e51b815260206004820152603160248201527f45524337323155524953746f726167653a2055524920717565727920666f72206044820152703737b732bc34b9ba32b73a103a37b5b2b760791b60648201526084016106b6565b60008281526006602052604081208054610eb89061216c565b80601f0160208091040260200160405190810160405280929190818152602001828054610ee49061216c565b8015610f315780601f10610f0657610100808354040283529160200191610f31565b820191906000526020600020905b815481529060010190602001808311610f1457829003601f168201915b505050505090506000610f4f60408051602081019091526000815290565b9050805160001415610f62575092915050565b815115610f94578082604051602001610f7c929190611eca565b60405160208183030381529060405292505050919050565b610f9d84611679565b949350505050565b600081118015610fb757506008548111155b610ff55760405162461bcd60e51b815260206004820152600f60248201526e125b9d985b1a59081c1bdcdd081a59608a1b60448201526064016106b6565b6000600960008381526020019081526020016000206040518060800160405290816000820154815260200160018201805461102f9061216c565b80601f016020809104026020016040519081016040528092919081815260200182805461105b9061216c565b80156110a85780601f1061107d576101008083540402835291602001916110a8565b820191906000526020600020905b81548152906001019060200180831161108b57829003601f168201915b5050509183525050600282015460208201526003909101546001600160a01b0390811660409092019190915260608201519192501633141561112c5760405162461bcd60e51b815260206004820152601860248201527f43616e6e6f742074697020796f7572206f776e20706f7374000000000000000060448201526064016106b6565b60608101516040516001600160a01b03909116903480156108fc02916000818181858888f19350505050158015611167573d6000803e3d6000fd5b50348160400181815161117a91906120fd565b90525060008281526009602090815260409091208251815581830151805184936111ab926001850192910190611b83565b506040828101516002830155606092830151600390920180546001600160a01b0319166001600160a01b03909316929092179091556020830151838201519284015191517f20988fe475351e75813672abada1dddb7ac67cbbeb81e61e1160b8329d8cdf1c9361121d938793926120c3565b60405180910390a15050565b600780546000918261123a836121a7565b919050555061124b33600754611751565b6112576007548361176b565b611262600754610bbb565b505060075490565b6000908152600260205260409020546001600160a01b0316151590565b600081815260046020526040902080546001600160a01b0319166001600160a01b03841690811790915581906112bc82610abd565b6001600160a01b03167f8c5be1e5ebec7d5bd14f71427d1e84f3dd0314c0f7b2291e5b200ac8c7c3b92560405160405180910390a45050565b60006113008261126a565b6113615760405162461bcd60e51b815260206004820152602c60248201527f4552433732313a206f70657261746f7220717565727920666f72206e6f6e657860448201526b34b9ba32b73a103a37b5b2b760a11b60648201526084016106b6565b600061136c83610abd565b9050806001600160a01b0316846001600160a01b031614806113a75750836001600160a01b031661139c8461064e565b6001600160a01b0316145b80610f9d57506001600160a01b0380821660009081526005602090815260408083209388168352929052205460ff16610f9d565b826001600160a01b03166113ee82610abd565b6001600160a01b0316146114525760405162461bcd60e51b815260206004820152602560248201527f4552433732313a207472616e736665722066726f6d20696e636f72726563742060448201526437bbb732b960d91b60648201526084016106b6565b6001600160a01b0382166114b45760405162461bcd60e51b8152602060048201526024808201527f4552433732313a207472616e7366657220746f20746865207a65726f206164646044820152637265737360e01b60648201526084016106b6565b6114bf600082611287565b6001600160a01b03831660009081526003602052604081208054600192906114e8908490612129565b90915550506001600160a01b03821660009081526003602052604081208054600192906115169084906120fd565b909155505060008181526002602052604080822080546001600160a01b0319166001600160a01b0386811691821790925591518493918716917fddf252ad1be2c89b69c2b068fc378daa952ba7f163c4a11628f55a4df523b3ef91a4505050565b816001600160a01b0316836001600160a01b031614156115d95760405162461bcd60e51b815260206004820152601960248201527f4552433732313a20617070726f766520746f2063616c6c65720000000000000060448201526064016106b6565b6001600160a01b03838116600081815260056020908152604080832094871680845294825291829020805460ff191686151590811790915591519182527f17307eab39ab6107e8899845ad3d59bd9653f200f220920489ca2b5937696c31910160405180910390a3505050565b6116518484846113db565b61165d848484846117f6565b610c995760405162461bcd60e51b81526004016106b690612020565b60606116848261126a565b6116e85760405162461bcd60e51b815260206004820152602f60248201527f4552433732314d657461646174613a2055524920717565727920666f72206e6f60448201526e3732bc34b9ba32b73a103a37b5b2b760891b60648201526084016106b6565b60006116ff60408051602081019091526000815290565b9050600081511161171f576040518060200160405280600081525061174a565b8061172984611903565b60405160200161173a929190611eca565b6040516020818303038152906040525b9392505050565b610c63828260405180602001604052806000815250611a1d565b6117748261126a565b6117d75760405162461bcd60e51b815260206004820152602e60248201527f45524337323155524953746f726167653a2055524920736574206f66206e6f6e60448201526d32bc34b9ba32b73a103a37b5b2b760911b60648201526084016106b6565b600082815260066020908152604090912082516107ec92840190611b83565b60006001600160a01b0384163b156118f857604051630a85bd0160e11b81526001600160a01b0385169063150b7a029061183a903390899088908890600401611ef9565b602060405180830381600087803b15801561185457600080fd5b505af1925050508015611884575060408051601f3d908101601f1916820190925261188191810190611e24565b60015b6118de573d8080156118b2576040519150601f19603f3d011682016040523d82523d6000602084013e6118b7565b606091505b5080516118d65760405162461bcd60e51b81526004016106b690612020565b805181602001fd5b6001600160e01b031916630a85bd0160e11b149050610f9d565b506001949350505050565b6060816119275750506040805180820190915260018152600360fc1b602082015290565b8160005b8115611951578061193b816121a7565b915061194a9050600a83612115565b915061192b565b60008167ffffffffffffffff81111561197a57634e487b7160e01b600052604160045260246000fd5b6040519080825280601f01601f1916602001820160405280156119a4576020820181803683370190505b5090505b8415610f9d576119b9600183612129565b91506119c6600a866121c2565b6119d19060306120fd565b60f81b8183815181106119f457634e487b7160e01b600052603260045260246000fd5b60200101906001600160f81b031916908160001a905350611a16600a86612115565b94506119a8565b611a278383611a50565b611a3460008484846117f6565b6107ec5760405162461bcd60e51b81526004016106b690612020565b6001600160a01b038216611aa65760405162461bcd60e51b815260206004820181905260248201527f4552433732313a206d696e7420746f20746865207a65726f206164647265737360448201526064016106b6565b611aaf8161126a565b15611afc5760405162461bcd60e51b815260206004820152601c60248201527f4552433732313a20746f6b656e20616c7265616479206d696e7465640000000060448201526064016106b6565b6001600160a01b0382166000908152600360205260408120805460019290611b259084906120fd565b909155505060008181526002602052604080822080546001600160a01b0319166001600160a01b03861690811790915590518392907fddf252ad1be2c89b69c2b068fc378daa952ba7f163c4a11628f55a4df523b3ef908290a45050565b828054611b8f9061216c565b90600052602060002090601f016020900481019282611bb15760008555611bf7565b82601f10611bca57805160ff1916838001178555611bf7565b82800160010185558215611bf7579182015b82811115611bf7578251825591602001919060010190611bdc565b50610a9e9291505b80821115610a9e5760008155600101611bff565b600067ffffffffffffffff80841115611c2e57611c2e612202565b604051601f8501601f19908116603f01168101908282118183101715611c5657611c56612202565b81604052809350858152868686011115611c6f57600080fd5b858560208301376000602087830101525050509392505050565b80356001600160a01b0381168114611ca057600080fd5b919050565b600060208284031215611cb6578081fd5b61174a82611c89565b60008060408385031215611cd1578081fd5b611cda83611c89565b9150611ce860208401611c89565b90509250929050565b600080600060608486031215611d05578081fd5b611d0e84611c89565b9250611d1c60208501611c89565b9150604084013590509250925092565b60008060008060808587031215611d41578081fd5b611d4a85611c89565b9350611d5860208601611c89565b925060408501359150606085013567ffffffffffffffff811115611d7a578182fd5b8501601f81018713611d8a578182fd5b611d9987823560208401611c13565b91505092959194509250565b60008060408385031215611db7578182fd5b611dc083611c89565b915060208301358015158114611dd4578182fd5b809150509250929050565b60008060408385031215611df1578182fd5b611dfa83611c89565b946020939093013593505050565b600060208284031215611e19578081fd5b813561174a81612218565b600060208284031215611e35578081fd5b815161174a81612218565b600060208284031215611e51578081fd5b813567ffffffffffffffff811115611e67578182fd5b8201601f81018413611e77578182fd5b610f9d84823560208401611c13565b600060208284031215611e97578081fd5b5035919050565b60008151808452611eb6816020860160208601612140565b601f01601f19169290920160200192915050565b60008351611edc818460208801612140565b835190830190611ef0818360208801612140565b01949350505050565b6001600160a01b0385811682528416602082015260408101839052608060608201819052600090611f2c90830184611e9e565b9695505050505050565b60006020808301818452808551808352604092508286019150828160051b870101848801865b83811015611fbb57603f19898403018552815160808151855288820151818a870152611f8a82870182611e9e565b838a0151878b01526060938401516001600160a01b0316939096019290925250509386019390860190600101611f5c565b509098975050505050505050565b6020808252825182820181905260009190848201906040850190845b8181101561200157835183529284019291840191600101611fe5565b50909695505050505050565b60208152600061174a6020830184611e9e565b60208082526032908201527f4552433732313a207472616e7366657220746f206e6f6e20455243373231526560408201527131b2b4bb32b91034b6b83632b6b2b73a32b960711b606082015260800190565b60208082526031908201527f4552433732313a207472616e736665722063616c6c6572206973206e6f74206f6040820152701ddb995c881b9bdc88185c1c1c9bdd9959607a1b606082015260800190565b8481526080602082015260006120dc6080830186611e9e565b6040830194909452506001600160a01b039190911660609091015292915050565b60008219821115612110576121106121d6565b500190565b600082612124576121246121ec565b500490565b60008282101561213b5761213b6121d6565b500390565b60005b8381101561215b578181015183820152602001612143565b83811115610c995750506000910152565b600181811c9082168061218057607f821691505b602082108114156121a157634e487b7160e01b600052602260045260246000fd5b50919050565b60006000198214156121bb576121bb6121d6565b5060010190565b6000826121d1576121d16121ec565b500690565b634e487b7160e01b600052601160045260246000fd5b634e487b7160e01b600052601260045260246000fd5b634e487b7160e01b600052604160045260246000fd5b6001600160e01b03198116811461222e57600080fd5b5056fea2646970667358221220d7a47c8ceca3b2bedf10fb5ff152e5236ac60eea10e13430bf43e24459286e5e64736f6c63430008040033",
  "linkReferences": {},
  "deployedLinkReferences": {}
}